{"abi":[{"type":"constructor","inputs":[],"stateMutability":"nonpayable"},{"type":"function","name":"addToWhitelist","inputs":[{"name":"wallet","type":"address","internalType":"address"}],"outputs":[],"stateMutability":"nonpayable"},{"type":"function","name":"isWhitelisted","inputs":[{"name":"wallet","type":"address","internalType":"address"}],"outputs":[{"name":"","type":"bool","internalType":"bool"}],"stateMutability":"view"},{"type":"function","name":"owner","inputs":[],"outputs":[{"name":"","type":"address","internalType":"address"}],"stateMutability":"view"},{"type":"function","name":"removeFromWhitelist","inputs":[{"name":"wallet","type":"address","internalType":"address"}],"outputs":[],"stateMutability":"nonpayable"},{"type":"function","name":"whitelist","inputs":[{"name":"","type":"address","internalType":"address"}],"outputs":[{"name":"","type":"bool","internalType":"bool"}],"stateMutability":"view"},{"type":"event","name":"AddressAdded","inputs":[{"name":"wallet","type":"address","indexed":true,"internalType":"address"}],"anonymous":false},{"type":"event","name":"AddressRemoved","inputs":[{"name":"wallet","type":"address","indexed":true,"internalType":"address"}],"anonymous":false}],"bytecode":{"object":"0x608060405234801561001057600080fd5b50600080546001600160a01b0319163317905561042a806100326000396000f3fe608060405234801561001057600080fd5b50600436106100575760003560e01c80633af32abf1461005c5780638ab1d6811461009d5780638da5cb5b146100b25780639b19251a146100dd578063e43252d714610100575b600080fd5b61008861006a366004610377565b6001600160a01b031660009081526001602052604090205460ff1690565b60405190151581526020015b60405180910390f35b6100b06100ab366004610377565b610113565b005b6000546100c5906001600160a01b031681565b6040516001600160a01b039091168152602001610094565b6100886100eb366004610377565b60016020526000908152604090205460ff1681565b6100b061010e366004610377565b61021d565b6000546001600160a01b031633146101465760405162461bcd60e51b815260040161013d906103a7565b60405180910390fd5b6001600160a01b03811660009081526001602052604090205460ff166101d45760405162461bcd60e51b815260206004820152603a60248201527f4f20656e64657265636f206e616f2066617a206d61697320706172746520646f60448201527f20636164617374726f2064652062656e65666963696172696f73000000000000606482015260840161013d565b6001600160a01b038116600081815260016020526040808220805460ff19169055517f24a12366c02e13fe4a9e03d86a8952e85bb74a456c16e4a18b6d8295700b74bb9190a250565b6000546001600160a01b031633146102475760405162461bcd60e51b815260040161013d906103a7565b6001600160a01b0381166102a75760405162461bcd60e51b815260206004820152602160248201527f4f20656e64657265636f206461206361727465697261206520696e76616c69646044820152606f60f81b606482015260840161013d565b6001600160a01b03811660009081526001602052604090205460ff16156103285760405162461bcd60e51b815260206004820152602f60248201527f4f20656e64657265636f206a612065737461206e6f20636164617374726f206460448201526e652062656e65666963696172696f7360881b606482015260840161013d565b6001600160a01b0381166000818152600160208190526040808320805460ff1916909217909155517fa226db3f664042183ee0281230bba26cbf7b5057e50aee7f25a175ff45ce4d7f9190a250565b60006020828403121561038957600080fd5b81356001600160a01b03811681146103a057600080fd5b9392505050565b6020808252602d908201527f4170656e6173206f2070726f70726965746172696f20706f6465206368616d6160408201526c7220657374612066756e63616f60981b60608201526080019056fea264697066735822122064ca5636c2937f071905b7afe630bc3b45016c11f5b68e7818e14f898d9002fb64736f6c63430008120033","linkReferences":{}},"methodIdentifiers":{"addToWhitelist(address)":"e43252d7","isWhitelisted(address)":"3af32abf","owner()":"8da5cb5b","removeFromWhitelist(address)":"8ab1d681","whitelist(address)":"9b19251a"},"id":0}